:04000000E0EF00F03D
:1000080000C016F001C015F0F2A41ED0010E17248E
:10001800006E000E1820016E00C017F001C018F025
:10002800000E185C02E10A0E175C02E3176A186AF0
:1000380017C01DF018C01EF03CD8D59E1BC0D7FFB6
:1000480019C0D6FFD58EF294F2A20FD00B0E1B6EFC
:10005800000E1C6EDC0E196E000E1A6ED59E0B0E6D
:10006800D76EDC0ED66ED58EF292F0A00FD0C20EEF
:100078001B6E000E1C6EF70E196E000E1A6ED59EC2
:10008800C20ED76EF70ED66ED58EF09016C000F061
:0600980015C001F011008B
:10009E00F28EF28CD08EF294F28AF184F292F29079
:0C00AE00F288F086F08CF18CF18A1200D0
:1000BA00800E1E18006E800E005C02E1000E1D5CB0
:1000CA000AE3800E006E800E1E18005C02E11D50CD
:1000DA00090801E302D08C6A5BD01ED03F0E8C6EF9
:1000EA0057D0060E8C6E54D05B0E8C6E51D04F0ECC
:1000FA008C6E4ED0660E8C6E4BD06D0E8C6E48D0C8
:10010A007D0E8C6E45D0070E8C6E42D07F0E8C6EA3
:10011A003FD06F0E8C6E3CD0000E1E1802E1000E0E
:10012A001D18DCE0000E1E1802E1010E1D18D9E0B0
:10013A00000E1E1802E1020E1D18D6E0000E1E184F
:10014A0002E1030E1D18D3E0000E1E1802E1040E90
:10015A001D18D0E0000E1E1802E1050E1D18CDE094
:10016A00000E1E1802E1060E1D18CAE0000E1E1827
:10017A0002E1070E1D18C7E0000E1E1802E1080E64
:10018A001D18C4E0000E1E1802E1090E1D18C1E078
:02019A00120051
:10019C000F0EC112F19E956A836A938093828180BF
:0401AC00818212003A
:1001B0000900F5CFE6FF0006FBE10106F9E11200B8
:1001C000176A186AEBDF040ED56E69DFFFD7FFD719
:020000040030CA
:0E000000000C1F1EFF8381FF0FC00FE00F409A
:00000001FF
